:100000000C9461000C9473000C9473000C947300B6
:100010000C9473000C9473000C9473000C94730094
:100020000C9473000C9473000C9473000C94730084
:100030000C9473000C9473000C9473000C94730074
:100040000C9421010C9473000C9473000C947300B5
:100050000C9473000C9473000C9473000C94730054
:100060000C9473000C94730000000009000302005C
:10007000000405080000000000000000000000016E
:10008000020408102040800102040810200102042C
:100090000810204080400404040404040404020204
:1000A000020202020303030303030202030000002F
:1000B00000250028002B0000000000240027002A53
:1000C000000011241FBECFEFD8E0DEBFCDBF21E07E
:1000D000A0E0B1E001C01D92A930B207E1F70E9493
:1000E00085020C9495020C94000061E084E00E946B
:1000F0001A0261E083E00E941A0261E08BE00E9434
:100100001A0261E08DE00E941A0261E080E00E9424
:100110001A0261E081E00E941A0261E080E00E9420
:10012000560261E081E00C94560261E084E00E9496
:10013000560264EF71E080E090E00E94900160E080
:1001400084E00E94560264EF71E080E090E00E943B
:10015000900161E083E00E94560260E971E080E076
:1001600090E00E94900161E084E00E94560264EFFA
:1001700071E080E090E00E94900160E084E00E94E5
:10018000560260E971E080E090E00E94900160E03A
:1001900083E00E94560264EF71E080E090E00E94EC
:1001A000900160E080E00E94560268EC70E080E020
:1001B00090E00E94900161E080E00E94560268ECAD
:1001C00070E080E090E00E94900160E081E00E9499
:1001D000560268EC70E080E090E00E94900161E0DF
:1001E00081E00E94560268EC70E080E090E00E949E
:1001F000900161E08BE00E94560268EC70E080E0C4
:1002000090E00E94900160E08BE00E94560268EC52
:1002100070E080E090E00E94900161E08DE00E943B
:10022000560268EC70E080E090E00E94900160E08F
:100230008DE00E94560268EC70E080E090E00C9443
:1002400090011F920F920FB60F9211242F933F939C
:100250008F939F93AF93BF93809105019091060177
:10026000A0910701B09108013091040123E0230F10
:100270002D3768F126E8230F0296A11DB11D2093AA
:1002800004018093050190930601A0930701B093A8
:1002900008018091000190910101A0910201B091AB
:1002A00003010196A11DB11D8093000190930101EE
:1002B000A0930201B0930301BF91AF919F918F91E1
:1002C0003F912F910F900FBE0F901F9018950196A0
:1002D000A11DB11DD4CF3FB7F8948091000190913A
:1002E0000101A0910201B091030126B5A89B05C0B0
:1002F0002F3F19F00196A11DB11D3FBFBA2FA92FA5
:10030000982F8827BC01CD01620F711D811D911DA1
:1003100042E0660F771F881F991F4A95D1F708950D
:100320008F929F92AF92BF92CF92DF92EF92FF9205
:100330006B017C010E946B014B015C01C114D10473
:10034000E104F104E9F00E9494020E946B01681933
:1003500079098A099B09683E73408105910570F30C
:1003600021E0C21AD108E108F10888EE880E83E086
:10037000981EA11CB11CC114D104E104F10429F799
:10038000FF90EF90DF90CF90BF90AF909F908F90B5
:100390000895789484B5836084BD85B5836085BDF8
:1003A000EEE6F0E0808181608083E1E8F0E082E0C9
:1003B0008083808181608083E0E8F0E080818160DB
:1003C0008083E1EBF0E0808184608083E0EBF0E00B
:1003D00080818160808387E880937A001092C100D9
:1003E0000895843081F028F48230E9F08330F9F008
:1003F0000895883071F0893091F08530B9F480919A
:1004000080008F7D03C0809180008F778093800073
:1004100008958091B0008F778093B0000895809107
:10042000B0008F7DF9CF84B58F7784BD089584B5F2
:100430008F7DFBCFCF93DF9390E0FC01E158FF4F1E
:1004400024918A569F4FFC0184918823C9F090E043
:10045000880F991FFC01E954FF4FA591B491FC014D
:10046000E355FF4FC591D49161110DC09FB7F8942A
:100470008C91209582238C938881282328839FBF89
:10048000DF91CF910895623051F49FB7F8943C9179
:10049000822F809583238C93E8812E2BEFCF8FB70B
:1004A000F894EC912E2B2C938FBFEACF1F93CF9310
:1004B000DF93282F30E0F901E859FF4F8491F901CB
:1004C000E158FF4FD491F901EA56FF4FC491CC2374
:1004D000A9F0162F81110E94F101EC2FF0E0EE0F30
:1004E000FF1FE355FF4FA591B4918FB7F894EC919E
:1004F000111108C0D095DE23DC938FBFDF91CF911F
:100500001F910895DE2BF8CF08950E94C9010E9423
:1005100084020E947500C0E0D0E00E949500209700
:0E052000E1F30E940000F9CF0895F894FFCF98
:00000001FF
